{
	"data": {
		"bytecode": {
			"linkReferences": {},
			"object": "608060405234801561001057600080fd5b5060058054600160a060020a03191633179055611962806100326000396000f3006080604052600436106100485763ffffffff60e060020a6000350416631bee9e44811461004d57806327dc297e1461007e5780632a1bbc34146100db57806338bbfa50146100f0575b600080fd5b34801561005957600080fd5b5061006261018b565b604051600160a060020a03909116815260200160405180910390f35b34801561008a57600080fd5b506100d96004803590369060446024803590810190830135806020601f8201819004810201604051908101604052818152929190602084018383808284375094975061019a9650505050505050565b005b3480156100e757600080fd5b506100d9610358565b3480156100fc57600080fd5b506100d96004803590369060446024803590810190830135806020601f820181900481020160405190810160405281815292919060208401838380828437509497969560208082019650903587018082019550359350839250601f83018190048102019050604051908101604052818152929190602084018383808284375094975061036b9650505050505050565b600554600160a060020a031681565b600019600081836040516020018082805190602001908083835b602083106101d35780518252601f1990920191602091820191016101b4565b6001836020036101000a03801982511681845116179092525050509190910192506040915050516020818303038152906040526040518082805190602001908083835b602083106102355780518252601f199092019160209182019101610216565b6001836020036101000a0380198251168184511617909252505050919091019250604091505051809103902081151561026a57fe5b6005549190069150600160a060020a0316816040516024810191909152604401604051601f198183030181526040919091527f03c83d77000000000000000000000000000000000000000000000000000000006020820180517bffffffffffffffffffffffffffffffffffffffffffffffffffffffff16909117905260405180828051906020019080838360005b838110156103105780820151838201526020016102f8565b50505050905090810190601f16801561033d5780820380516001836020036101000a031916815260200191505b509150506000604051808303816000865af150505050505050565b6103686000602062030d40610370565b50565b505050565b60006060806060600060608061038461185f565b6000606060008c118015610399575060208c11155b15156103a457600080fd5b600a8d029c506001604051818152601f19601f83011681016020016040529080156103d9578160200160208202803883390190505b5098508b7f0100000000000000000000000000000000000000000000000000000000000000028960008151811061040c57fe5b9060200101907effffffffffffffffffffffffffffffffffffffffffffffffffffffffffffff1916908160001a9053506020604051818152601f19601f830116810160200160405290801561046b578160200160208202803883390190505b5097506020604051818152601f19601f830116810160200160405290801561049d578160200160208202803883390190505b5096506104a8610903565b9550602088524241186001430340186020890152602087528560208801526020604051818152601f19601f83011681016020016040529080156104f5578160200160208202803883390190505b5094508c60208601526008604051818152601f19601f830116810160200160405290801561052d578160200160208202803883390190505b5093506105408560186008876000610ad6565b506080604051908101604052808981526020018a81526020018881526020018681525092506105a360408051908101604052600681527f72616e646f6d00000000000000000000000000000000000000000000000000006020820152848d610b25565b91506008604051818152601f19601f83011681016020016040529080156105d4578160200160208202803883390190505b50905060208401517f0100000000000000000000000000000000000000000000000000000000000000810460278301537e01000000000000000000000000000000000000000000000000000000000000810460268301537d0100000000000000000000000000000000000000000000000000000000008104602583015360e060020a810460248301537b01000000000000000000000000000000000000000000000000000000810460238301537a0100000000000000000000000000000000000000000000000000008104602283015379010000000000000000000000000000000000000000000000000081046021830153780100000000000000000000000000000000000000000000000081046020830153506108f382826020860151600287516040518082805190602001908083835b602083106107255780518252601f199092019160209182019101610706565b6001836020036101000a0380198251168184511680821785525050505050509050019150506020604051808303816000865af1158015610769573d6000803e3d6000fd5b5050506040513d602081101561077e57600080fd5b8101908080519250505060408801516040516020018085805190602001908083835b602083106107bf5780518252601f1990920191602091820191016107a0565b6001836020036101000a038019825116818451161790925250505091909101905084805190602001908083835b6020831061080b5780518252601f1990920191602091820191016107ec565b6001836020036101000a038019825116818451161790925250505091909101848152602001905082805190602001908083835b6020831061085d5780518252601f19909201916020918201910161083e565b6001836020036101000a03801982511681845116179092525050509190910195506040945050505050516020818303038152906040526040518082805190602001908083835b602083106108c25780518252601f1990920191602091820191016108a3565b6001836020036101000a03801982511681845116179092525050509190910192506040915050518091039020610d40565b509b9a5050505050505050505050565b60008054600160a060020a0316158061092e575060005461092c90600160a060020a0316610d55565b155b1561093f5761093d6000610d59565b505b600054600160a060020a03166338cc48316040518163ffffffff1660e060020a028152600401602060405180830381600087803b15801561097f57600080fd5b505af1158015610993573d6000803e3d6000fd5b505050506040513d60208110156109a957600080fd5b810190808051600154600160a060020a039081169116149250610a5d91505057600054600160a060020a03166338cc48316040518163ffffffff1660e060020a028152600401602060405180830381600087803b158015610a0957600080fd5b505af1158015610a1d573d6000803e3d6000fd5b505050506040513d6020811015610a3357600080fd5b81019080805160018054600160a060020a031916600160a060020a03929092169190911790555050505b600154600160a060020a031663abaa5f3e6040518163ffffffff1660e060020a028152600401602060405180830381600087803b158015610a9d57600080fd5b505af1158015610ab1573d6000803e3d6000fd5b505050506040513d6020811015610ac757600080fd5b81019080805193505050505b90565b60608382016000808286511015610aec57600080fd5b505060208087019084015b868860200101821015610b1857818901518682015260209182019101610af7565b5093979650505050505050565b60008054606090600160a060020a03161580610b535750600054610b5190600160a060020a0316610d55565b155b15610b6457610b626000610d59565b505b600054600160a060020a03166338cc48316040518163ffffffff1660e060020a028152600401602060405180830381600087803b158015610ba457600080fd5b505af1158015610bb8573d6000803e3d6000fd5b505050506040513d6020811015610bce57600080fd5b810190808051600154600160a060020a039081169116149250610c8291505057600054600160a060020a03166338cc48316040518163ffffffff1660e060020a028152600401602060405180830381600087803b158015610c2e57600080fd5b505af1158015610c42573d6000803e3d6000fd5b505050506040513d6020811015610c5857600080fd5b81019080805160018054600160a060020a031916600160a060020a03929092169190911790555050505b6004604051908082528060200260200182016040528015610cb757816020015b6060815260200190600190039081610ca25790505b509050835181600081518110610cc957fe5b60209081029091010152836001602002015181600181518110610ce857fe5b6020908102919091010152604084015181600281518110610d0557fe5b6020908102919091010152606084015181600381518110610d2257fe5b60209081029091010152610d37858285610d69565b95945050505050565b60008281526003602052819060409020555050565b3b90565b6000610d63611143565b92915050565b600080548190606090600160a060020a03161580610d995750600054610d9790600160a060020a0316610d55565b155b15610daa57610da86000610d59565b505b600054600160a060020a03166338cc48316040518163ffffffff1660e060020a028152600401602060405180830381600087803b158015610dea57600080fd5b505af1158015610dfe573d6000803e3d6000fd5b505050506040513d6020811015610e1457600080fd5b810190808051600154600160a060020a039081169116149250610ec891505057600054600160a060020a03166338cc48316040518163ffffffff1660e060020a028152600401602060405180830381600087803b158015610e7457600080fd5b505af1158015610e88573d6000803e3d6000fd5b505050506040513d6020811015610e9e57600080fd5b81019080805160018054600160a060020a031916600160a060020a03929092169190911790555050505b600154600160a060020a0316632ef3accc87866040518363ffffffff1660e060020a0281526004018080602001838152602001828103825284818151815260200191508051906020019080838360005b83811015610f30578082015183820152602001610f18565b50505050905090810190601f168015610f5d5780820380516001836020036101000a031916815260200191505b509350505050602060405180830381600087803b158015610f7d57600080fd5b505af1158015610f91573d6000803e3d6000fd5b505050506040513d6020811015610fa757600080fd5b8101908080519450505050670de0b6b3a76400003a850201821115610fcf576000925061113a565b610fd8856114ee565b600154909150600160a060020a031663c55c1cb68360008985896040518663ffffffff1660e060020a028152600401808581526020018060200180602001848152602001838103835286818151815260200191508051906020019080838360005b83811015611051578082015183820152602001611039565b50505050905090810190601f16801561107e5780820380516001836020036101000a031916815260200191505b50838103825285818151815260200191508051906020019080838360005b838110156110b457808201518382015260200161109c565b50505050905090810190601f1680156110e15780820380516001836020036101000a031916815260200191505b5096505050505050506020604051808303818588803b15801561110357600080fd5b505af1158015611117573d6000803e3d6000fd5b50505050506040513d602081101561112e57600080fd5b81019080805195505050505b50509392505050565b600080611163731d3b2638a7cc9f2cb3d298a3da7a90b67e5506ed610d55565b11156111d35760008054600160a060020a031916731d3b2638a7cc9f2cb3d298a3da7a90b67e5506ed1790556111cb60408051908101604052600b81527f6574685f6d61696e6e65740000000000000000000000000000000000000000006020820152611565565b506001610ad3565b60006111f273c03a2615d5efaf5f49f60b7bb6583eaec212fdf1610d55565b111561125a5760008054600160a060020a03191673c03a2615d5efaf5f49f60b7bb6583eaec212fdf11790556111cb60408051908101604052600c81527f6574685f726f707374656e3300000000000000000000000000000000000000006020820152611565565b600061127973b7a07bcf2ba2f2703b24c0691b5278999c59ac7e610d55565b11156112e15760008054600160a060020a03191673b7a07bcf2ba2f2703b24c0691b5278999c59ac7e1790556111cb60408051908101604052600981527f6574685f6b6f76616e00000000000000000000000000000000000000000000006020820152611565565b600061130073146500cfd35b22e4a392fe0adc06de1a1368ed48610d55565b11156113685760008054600160a060020a03191673146500cfd35b22e4a392fe0adc06de1a1368ed481790556111cb60408051908101604052600b81527f6574685f72696e6b6562790000000000000000000000000000000000000000006020820152611565565b600061138773a2998efd205fb9d4b4963afb70778d6354ad3a41610d55565b11156113ef5760008054600160a060020a03191673a2998efd205fb9d4b4963afb70778d6354ad3a411790556111cb60408051908101604052600a81527f6574685f676f65726c69000000000000000000000000000000000000000000006020820152611565565b600061140e736f485c8bf6fc43ea212e93bbf8ce046c7f1cb475610d55565b1115611442575060008054600160a060020a031916736f485c8bf6fc43ea212e93bbf8ce046c7f1cb4751790556001610ad3565b60006114617320e12a1f859b3feae5fb2a0a32c18f5a65555bbf610d55565b1115611495575060008054600160a060020a0319167320e12a1f859b3feae5fb2a0a32c18f5a65555bbf1790556001610ad3565b60006114b47351efaf4c8b3c9afbd5ab9f4bbc82784ab6ef8faa610d55565b11156114e8575060008054600160a060020a0319167351efaf4c8b3c9afbd5ab9f4bbc82784ab6ef8faa1790556001610ad3565b50600090565b60606114f8611886565b600061150261157c565b61150e82610400611588565b611517826115b6565b5060005b83518110156115525761154a84828151811061153357fe5b90602001906020020151839063ffffffff6115c116565b60010161151b565b61155b826115de565b8151949350505050565b600281805161157892916020019061189e565b5050565b60405180590338823950565b80602081061561159b5760208106602003015b60208301819052604051928390526000835290910160405250565b6103688160046115e5565b6115ce82600283516115fe565b61036b828263ffffffff61170216565b6103688160075b61157882601f602060ff8516021763ffffffff61179f16565b6017811161161f5761161a8360ff84811660200216831761179f565b61036b565b60ff811161165857611640836018602060ff8616021763ffffffff61179f16565b6116528382600163ffffffff6117d816565b5061036b565b61ffff811161168c5761167a836019602060ff8616021763ffffffff61179f16565b6116528382600263ffffffff6117d816565b63ffffffff81116116c2576116b083601a602060ff8616021763ffffffff61179f16565b6116528382600463ffffffff6117d816565b67ffffffffffffffff811161036b576116ea83601b602060ff8616021763ffffffff61179f16565b6116fc8382600863ffffffff6117d816565b50505050565b61170a611886565b6000806000808660200151875151875101111561173c5761173c876117348960200151895161182e565b600202611845565b8551915086518051602081830101955087510190526020860192505b6020821061177b5782518452602084019350602083019250602082039150611758565b6001826020036101000a039050801983511681855116179093525093949350505050565b816020015182515160010111156117c1576117c1828360200151600202611845565b815180516020818301018381535060010190525050565b6117e0611886565b6000846020015185515184011115611804576118048561173487602001518661182e565b6001836101000a039050845180518481830101868419825116179052909301909252509192915050565b60008183111561183f575081610d63565b50919050565b6060825190506118558383611588565b6116fc8382611702565b60806040519081016040526004815b606081526020019060019003908161186e5790505090565b60408051908101604052606081526000602082015290565b828054600181600116156101000203166002900490600052602060002090601f016020900481019282601f106118df57805160ff191683800117855561190c565b8280016001018555821561190c579182015b8281111561190c5782518255916020019190600101906118f1565b5061191892915061191c565b5090565b610ad391905b8082111561191857600081556001016119225600a165627a7a72305820c2c60cc004579f93b41cd2396dd9c9781b832b01b7b9d7facc2a098ac38bce470029",
			"opcodes": "PUSH1 0x80 PUSH1 0x40 MSTORE CALLVALUE DUP1 ISZERO PUSH2 0x10 JUMPI PUSH1 0x0 DUP1 REVERT JUMPDEST POP PUSH1 0x5 DUP1 SLOAD PUSH1 0x1 PUSH1 0xA0 PUSH1 0x2 EXP SUB NOT AND CALLER OR SWAP1 SSTORE PUSH2 0x1962 DUP1 PUSH2 0x32 PUSH1 0x0 CODECOPY PUSH1 0x0 RETURN STOP PUSH1 0x80 PUSH1 0x40 MSTORE PUSH1 0x4 CALLDATASIZE LT PUSH2 0x48 JUMPI PUSH4 0xFFFFFFFF PUSH1 0xE0 PUSH1 0x2 EXP PUSH1 0x0 CALLDATALOAD DIV AND PUSH4 0x1BEE9E44 DUP2 EQ PUSH2 0x4D JUMPI DUP1 PUSH4 0x27DC297E EQ PUSH2 0x7E JUMPI DUP1 PUSH4 0x2A1BBC34 EQ PUSH2 0xDB JUMPI DUP1 PUSH4 0x38BBFA50 EQ PUSH2 0xF0 JUMPI JUMPDEST PUSH1 0x0 DUP1 REVERT JUMPDEST CALLVALUE DUP1 ISZERO PUSH2 0x59 JUMPI PUSH1 0x0 DUP1 REVERT JUMPDEST POP PUSH2 0x62 PUSH2 0x18B JUMP JUMPDEST PUSH1 0x40 MLOAD PUSH1 0x1 PUSH1 0xA0 PUSH1 0x2 EXP SUB SWAP1 SWAP2 AND DUP2 MSTORE PUSH1 0x20 ADD PUSH1 0x40 MLOAD DUP1 SWAP2 SUB SWAP1 RETURN JUMPDEST CALLVALUE DUP1 ISZERO PUSH2 0x8A JUMPI PUSH1 0x0 DUP1 REVERT JUMPDEST POP PUSH2 0xD9 PUSH1 0x4 DUP1 CALLDATALOAD SWAP1 CALLDATASIZE SWAP1 PUSH1 0x44 PUSH1 0x24 DUP1 CALLDATALOAD SWAP1 DUP2 ADD SWAP1 DUP4 ADD CALLDATALOAD DUP1 PUSH1 0x20 PUSH1 0x1F DUP3 ADD DUP2 SWAP1 DIV DUP2 MUL ADD PUSH1 0x40 MLOAD SWAP1 DUP2 ADD PUSH1 0x40 MSTORE DUP2 DUP2 MSTORE SWAP3 SWAP2 SWAP1 PUSH1 0x20 DUP5 ADD DUP4 DUP4 DUP1 DUP3 DUP5 CALLDATACOPY POP SWAP5 SWAP8 POP PUSH2 0x19A SWAP7 POP POP POP POP POP POP POP JUMP JUMPDEST STOP JUMPDEST CALLVALUE DUP1 ISZERO PUSH2 0xE7 JUMPI PUSH1 0x0 DUP1 REVERT JUMPDEST POP PUSH2 0xD9 PUSH2 0x358 JUMP JUMPDEST CALLVALUE DUP1 ISZERO PUSH2 0xFC JUMPI PUSH1 0x0 DUP1 REVERT JUMPDEST POP PUSH2 0xD9 PUSH1 0x4 DUP1 CALLDATALOAD SWAP1 CALLDATASIZE SWAP1 PUSH1 0x44 PUSH1 0x24 DUP1 CALLDATALOAD SWAP1 DUP2 ADD SWAP1 DUP4 ADD CALLDATALOAD DUP1 PUSH1 0x20 PUSH1 0x1F DUP3 ADD DUP2 SWAP1 DIV DUP2 MUL ADD PUSH1 0x40 MLOAD SWAP1 DUP2 ADD PUSH1 0x40 MSTORE DUP2 DUP2 MSTORE SWAP3 SWAP2 SWAP1 PUSH1 0x20 DUP5 ADD DUP4 DUP4 DUP1 DUP3 DUP5 CALLDATACOPY POP SWAP5 SWAP8 SWAP7 SWAP6 PUSH1 0x20 DUP1 DUP3 ADD SWAP7 POP SWAP1 CALLDATALOAD DUP8 ADD DUP1 DUP3 ADD SWAP6 POP CALLDATALOAD SWAP4 POP DUP4 SWAP3 POP PUSH1 0x1F DUP4 ADD DUP2 SWAP1 DIV DUP2 MUL ADD SWAP1 POP PUSH1 0x40 MLOAD SWAP1 DUP2 ADD PUSH1 0x40 MSTORE DUP2 DUP2 MSTORE SWAP3 SWAP2 SWAP1 PUSH1 0x20 DUP5 ADD DUP4 DUP4 DUP1 DUP3 DUP5 CALLDATACOPY POP SWAP5 SWAP8 POP PUSH2 0x36B SWAP7 POP POP POP POP POP POP POP JUMP JUMPDEST PUSH1 0x5 SLOAD PUSH1 0x1 PUSH1 0xA0 PUSH1 0x2 EXP SUB AND DUP2 JUMP JUMPDEST PUSH1 0x0 NOT PUSH1 0x0 DUP2 DUP4 PUSH1 0x40 MLOAD PUSH1 0x20 ADD DUP1 DUP3 DUP1 MLOAD SWAP1 PUSH1 0x20 ADD SWAP1 DUP1 DUP4 DUP4 JUMPDEST PUSH1 0x20 DUP4 LT PUSH2 0x1D3 JUMPI DUP1 MLOAD DUP3 MSTORE PUSH1 0x1F NOT SWAP1 SWAP3 ADD SWAP2 PUSH1 0x20 SWAP2 DUP3 ADD SWAP2 ADD PUSH2 0x1B4 JUMP JUMPDEST PUSH1 0x1 DUP4 PUSH1 0x20 SUB PUSH2 0x100 EXP SUB DUP1 NOT DUP3 MLOAD AND DUP2 DUP5 MLOAD AND OR SWAP1 SWAP3 MSTORE POP POP POP SWAP2 SWAP1 SWAP2 ADD SWAP3 POP PUSH1 0x40 SWAP2 POP POP MLOAD PUSH1 0x20 DUP2 DUP4 SUB SUB DUP2 MSTORE SWAP1 PUSH1 0x40 MSTORE PUSH1 0x40 MLOAD DUP1 DUP3 DUP1 MLOAD SWAP1 PUSH1 0x20 ADD SWAP1 DUP1 DUP4 DUP4 JUMPDEST PUSH1 0x20 DUP4 LT PUSH2 0x235 JUMPI DUP1 MLOAD DUP3 MSTORE PUSH1 0x1F NOT SWAP1 SWAP3 ADD SWAP2 PUSH1 0x20 SWAP2 DUP3 ADD SWAP2 ADD PUSH2 0x216 JUMP JUMPDEST PUSH1 0x1 DUP4 PUSH1 0x20 SUB PUSH2 0x100 EXP SUB DUP1 NOT DUP3 MLOAD AND DUP2 DUP5 MLOAD AND OR SWAP1 SWAP3 MSTORE POP POP POP SWAP2 SWAP1 SWAP2 ADD SWAP3 POP PUSH1 0x40 SWAP2 POP POP MLOAD DUP1 SWAP2 SUB SWAP1 KECCAK256 DUP2 ISZERO ISZERO PUSH2 0x26A JUMPI INVALID JUMPDEST PUSH1 0x5 SLOAD SWAP2 SWAP1 MOD SWAP2 POP PUSH1 0x1 PUSH1 0xA0 PUSH1 0x2 EXP SUB AND DUP2 PUSH1 0x40 MLOAD PUSH1 0x24 DUP2 ADD SWAP2 SWAP1 SWAP2 MSTORE PUSH1 0x44 ADD PUSH1 0x40 MLOAD PUSH1 0x1F NOT DUP2 DUP4 SUB ADD DUP2 MSTORE PUSH1 0x40 SWAP2 SWAP1 SWAP2 MSTORE PUSH32 0x3C83D7700000000000000000000000000000000000000000000000000000000 PUSH1 0x20 DUP3 ADD DUP1 MLOAD PUSH28 0xFFFFFFFFFFFFFFFFFFFFFFFFFFFFFFFFFFFFFFFFFFFFFFFFFFFFFFFF AND SWAP1 SWAP2 OR SWAP1 MSTORE PUSH1 0x40 MLOAD DUP1 DUP3 DUP1 MLOAD SWAP1 PUSH1 0x20 ADD SWAP1 DUP1 DUP4 DUP4 PUSH1 0x0 JUMPDEST DUP4 DUP2 LT ISZERO PUSH2 0x310 JUMPI DUP1 DUP3 ADD MLOAD DUP4 DUP3 ADD MSTORE PUSH1 0x20 ADD PUSH2 0x2F8 JUMP JUMPDEST POP POP POP POP SWAP1 POP SWAP1 DUP2 ADD SWAP1 PUSH1 0x1F AND DUP1 ISZERO PUSH2 0x33D JUMPI DUP1 DUP3 SUB DUP1 MLOAD PUSH1 0x1 DUP4 PUSH1 0x20 SUB PUSH2 0x100 EXP SUB NOT AND DUP2 MSTORE PUSH1 0x20 ADD SWAP2 POP JUMPDEST POP SWAP2 POP POP PUSH1 0x0 PUSH1 0x40 MLOAD DUP1 DUP4 SUB DUP2 PUSH1 0x0 DUP7 GAS CALL POP POP POP POP POP POP POP JUMP JUMPDEST PUSH2 0x368 PUSH1 0x0 PUSH1 0x20 PUSH3 0x30D40 PUSH2 0x370 JUMP JUMPDEST POP JUMP JUMPDEST POP POP POP JUMP JUMPDEST PUSH1 0x0 PUSH1 0x60 DUP1 PUSH1 0x60 PUSH1 0x0 PUSH1 0x60 DUP1 PUSH2 0x384 PUSH2 0x185F JUMP JUMPDEST PUSH1 0x0 PUSH1 0x60 PUSH1 0x0 DUP13 GT DUP1 ISZERO PUSH2 0x399 JUMPI POP PUSH1 0x20 DUP13 GT ISZERO JUMPDEST ISZERO ISZERO PUSH2 0x3A4 JUMPI PUSH1 0x0 DUP1 REVERT JUMPDEST PUSH1 0xA DUP14 MUL SWAP13 POP PUSH1 0x1 PUSH1 0x40 MLOAD DUP2 DUP2 MSTORE PUSH1 0x1F NOT PUSH1 0x1F DUP4 ADD AND DUP2 ADD PUSH1 0x20 ADD PUSH1 0x40 MSTORE SWAP1 DUP1 ISZERO PUSH2 0x3D9 JUMPI DUP2 PUSH1 0x20 ADD PUSH1 0x20 DUP3 MUL DUP1 CODESIZE DUP4 CODECOPY ADD SWAP1 POP JUMPDEST POP SWAP9 POP DUP12 PUSH32 0x100000000000000000000000000000000000000000000000000000000000000 MUL DUP10 PUSH1 0x0 DUP2 MLOAD DUP2 LT PUSH2 0x40C JUMPI INVALID JUMPDEST SWAP1 PUSH1 0x20 ADD ADD SWAP1 PUSH31 0xFFFFFFFFFFFFFFFFFFFFFFFFFFFFFFFFFFFFFFFFFFFFFFFFFFFFFFFFFFFFFF NOT AND SWAP1 DUP2 PUSH1 0x0 BYTE SWAP1 MSTORE8 POP PUSH1 0x20 PUSH1 0x40 MLOAD DUP2 DUP2 MSTORE PUSH1 0x1F NOT PUSH1 0x1F DUP4 ADD AND DUP2 ADD PUSH1 0x20 ADD PUSH1 0x40 MSTORE SWAP1 DUP1 ISZERO PUSH2 0x46B JUMPI DUP2 PUSH1 0x20 ADD PUSH1 0x20 DUP3 MUL DUP1 CODESIZE DUP4 CODECOPY ADD SWAP1 POP JUMPDEST POP SWAP8 POP PUSH1 0x20 PUSH1 0x40 MLOAD DUP2 DUP2 MSTORE PUSH1 0x1F NOT PUSH1 0x1F DUP4 ADD AND DUP2 ADD PUSH1 0x20 ADD PUSH1 0x40 MSTORE SWAP1 DUP1 ISZERO PUSH2 0x49D JUMPI DUP2 PUSH1 0x20 ADD PUSH1 0x20 DUP3 MUL DUP1 CODESIZE DUP4 CODECOPY ADD SWAP1 POP JUMPDEST POP SWAP7 POP PUSH2 0x4A8 PUSH2 0x903 JUMP JUMPDEST SWAP6 POP PUSH1 0x20 DUP9 MSTORE TIMESTAMP COINBASE XOR PUSH1 0x1 NUMBER SUB BLOCKHASH XOR PUSH1 0x20 DUP10 ADD MSTORE PUSH1 0x20 DUP8 MSTORE DUP6 PUSH1 0x20 DUP9 ADD MSTORE PUSH1 0x20 PUSH1 0x40 MLOAD DUP2 DUP2 MSTORE PUSH1 0x1F NOT PUSH1 0x1F DUP4 ADD AND DUP2 ADD PUSH1 0x20 ADD PUSH1 0x40 MSTORE SWAP1 DUP1 ISZERO PUSH2 0x4F5 JUMPI DUP2 PUSH1 0x20 ADD PUSH1 0x20 DUP3 MUL DUP1 CODESIZE DUP4 CODECOPY ADD SWAP1 POP JUMPDEST POP SWAP5 POP DUP13 PUSH1 0x20 DUP7 ADD MSTORE PUSH1 0x8 PUSH1 0x40 MLOAD DUP2 DUP2 MSTORE PUSH1 0x1F NOT PUSH1 0x1F DUP4 ADD AND DUP2 ADD PUSH1 0x20 ADD PUSH1 0x40 MSTORE SWAP1 DUP1 ISZERO PUSH2 0x52D JUMPI DUP2 PUSH1 0x20 ADD PUSH1 0x20 DUP3 MUL DUP1 CODESIZE DUP4 CODECOPY ADD SWAP1 POP JUMPDEST POP SWAP4 POP PUSH2 0x540 DUP6 PUSH1 0x18 PUSH1 0x8 DUP8 PUSH1 0x0 PUSH2 0xAD6 JUMP JUMPDEST POP PUSH1 0x80 PUSH1 0x40 MLOAD SWAP1 DUP2 ADD PUSH1 0x40 MSTORE DUP1 DUP10 DUP2 MSTORE PUSH1 0x20 ADD DUP11 DUP2 MSTORE PUSH1 0x20 ADD DUP9 DUP2 MSTORE PUSH1 0x20 ADD DUP7 DUP2 MSTORE POP SWAP3 POP PUSH2 0x5A3 PUSH1 0x40 DUP1 MLOAD SWAP1 DUP2 ADD PUSH1 0x40 MSTORE PUSH1 0x6 DUP2 MSTORE PUSH32 0x72616E646F6D0000000000000000000000000000000000000000000000000000 PUSH1 0x20 DUP3 ADD MSTORE DUP5 DUP14 PUSH2 0xB25 JUMP JUMPDEST SWAP2 POP PUSH1 0x8 PUSH1 0x40 MLOAD DUP2 DUP2 MSTORE PUSH1 0x1F NOT PUSH1 0x1F DUP4 ADD AND DUP2 ADD PUSH1 0x20 ADD PUSH1 0x40 MSTORE SWAP1 DUP1 ISZERO PUSH2 0x5D4 JUMPI DUP2 PUSH1 0x20 ADD PUSH1 0x20 DUP3 MUL DUP1 CODESIZE DUP4 CODECOPY ADD SWAP1 POP JUMPDEST POP SWAP1 POP PUSH1 0x20 DUP5 ADD MLOAD PUSH32 0x100000000000000000000000000000000000000000000000000000000000000 DUP2 DIV PUSH1 0x27 DUP4 ADD MSTORE8 PUSH31 0x1000000000000000000000000000000000000000000000000000000000000 DUP2 DIV PUSH1 0x26 DUP4 ADD MSTORE8 PUSH30 0x10000000000000000000000000000000000000000000000000000000000 DUP2 DIV PUSH1 0x25 DUP4 ADD MSTORE8 PUSH1 0xE0 PUSH1 0x2 EXP DUP2 DIV PUSH1 0x24 DUP4 ADD MSTORE8 PUSH28 0x1000000000000000000000000000000000000000000000000000000 DUP2 DIV PUSH1 0x23 DUP4 ADD MSTORE8 PUSH27 0x10000000000000000000000000000000000000000000000000000 DUP2 DIV PUSH1 0x22 DUP4 ADD MSTORE8 PUSH26 0x100000000000000000000000000000000000000000000000000 DUP2 DIV PUSH1 0x21 DUP4 ADD MSTORE8 PUSH25 0x1000000000000000000000000000000000000000000000000 DUP2 DIV PUSH1 0x20 DUP4 ADD MSTORE8 POP PUSH2 0x8F3 DUP3 DUP3 PUSH1 0x20 DUP7 ADD MLOAD PUSH1 0x2 DUP8 MLOAD PUSH1 0x40 MLOAD DUP1 DUP3 DUP1 MLOAD SWAP1 PUSH1 0x20 ADD SWAP1 DUP1 DUP4 DUP4 JUMPDEST PUSH1 0x20 DUP4 LT PUSH2 0x725 JUMPI DUP1 MLOAD DUP3 MSTORE PUSH1 0x1F NOT SWAP1 SWAP3 ADD SWAP2 PUSH1 0x20 SWAP2 DUP3 ADD SWAP2 ADD PUSH2 0x706 JUMP JUMPDEST PUSH1 0x1 DUP4 PUSH1 0x20 SUB PUSH2 0x100 EXP SUB DUP1 NOT DUP3 MLOAD AND DUP2 DUP5 MLOAD AND DUP1 DUP3 OR DUP6 MSTORE POP POP POP POP POP POP SWAP1 POP ADD SWAP2 POP POP PUSH1 0x20 PUSH1 0x40 MLOAD DUP1 DUP4 SUB DUP2 PUSH1 0x0 DUP7 GAS CALL ISZERO DUP1 ISZERO PUSH2 0x769 JUMPI RETURNDATASIZE PUSH1 0x0 DUP1 RETURNDATACOPY RETURNDATASIZE PUSH1 0x0 REVERT JUMPDEST POP POP POP PUSH1 0x40 MLOAD RETURNDATASIZE PUSH1 0x20 DUP2 LT ISZERO PUSH2 0x77E JUMPI PUSH1 0x0 DUP1 REVERT JUMPDEST DUP2 ADD SWAP1 DUP1 DUP1 MLOAD SWAP3 POP POP POP PUSH1 0x40 DUP9 ADD MLOAD PUSH1 0x40 MLOAD PUSH1 0x20 ADD DUP1 DUP6 DUP1 MLOAD SWAP1 PUSH1 0x20 ADD SWAP1 DUP1 DUP4 DUP4 JUMPDEST PUSH1 0x20 DUP4 LT PUSH2 0x7BF JUMPI DUP1 MLOAD DUP3 MSTORE PUSH1 0x1F NOT SWAP1 SWAP3 ADD SWAP2 PUSH1 0x20 SWAP2 DUP3 ADD SWAP2 ADD PUSH2 0x7A0 JUMP JUMPDEST PUSH1 0x1 DUP4 PUSH1 0x20 SUB PUSH2 0x100 EXP SUB DUP1 NOT DUP3 MLOAD AND DUP2 DUP5 MLOAD AND OR SWAP1 SWAP3 MSTORE POP POP POP SWAP2 SWAP1 SWAP2 ADD SWAP1 POP DUP5 DUP1 MLOAD SWAP1 PUSH1 0x20 ADD SWAP1 DUP1 DUP4 DUP4 JUMPDEST PUSH1 0x20 DUP4 LT PUSH2 0x80B JUMPI DUP1 MLOAD DUP3 MSTORE PUSH1 0x1F NOT SWAP1 SWAP3 ADD SWAP2 PUSH1 0x20 SWAP2 DUP3 ADD SWAP2 ADD PUSH2 0x7EC JUMP JUMPDEST PUSH1 0x1 DUP4 PUSH1 0x20 SUB PUSH2 0x100 EXP SUB DUP1 NOT DUP3 MLOAD AND DUP2 DUP5 MLOAD AND OR SWAP1 SWAP3 MSTORE POP POP POP SWAP2 SWAP1 SWAP2 ADD DUP5 DUP2 MSTORE PUSH1 0x20 ADD SWAP1 POP DUP3 DUP1 MLOAD SWAP1 PUSH1 0x20 ADD SWAP1 DUP1 DUP4 DUP4 JUMPDEST PUSH1 0x20 DUP4 LT PUSH2 0x85D JUMPI DUP1 MLOAD DUP3 MSTORE PUSH1 0x1F NOT SWAP1 SWAP3 ADD SWAP2 PUSH1 0x20 SWAP2 DUP3 ADD SWAP2 ADD PUSH2 0x83E JUMP JUMPDEST PUSH1 0x1 DUP4 PUSH1 0x20 SUB PUSH2 0x100 EXP SUB DUP1 NOT DUP3 MLOAD AND DUP2 DUP5 MLOAD AND OR SWAP1 SWAP3 MSTORE POP POP POP SWAP2 SWAP1 SWAP2 ADD SWAP6 POP PUSH1 0x40 SWAP5 POP POP POP POP POP MLOAD PUSH1 0x20 DUP2 DUP4 SUB SUB DUP2 MSTORE SWAP1 PUSH1 0x40 MSTORE PUSH1 0x40 MLOAD DUP1 DUP3 DUP1 MLOAD SWAP1 PUSH1 0x20 ADD SWAP1 DUP1 DUP4 DUP4 JUMPDEST PUSH1 0x20 DUP4 LT PUSH2 0x8C2 JUMPI DUP1 MLOAD DUP3 MSTORE PUSH1 0x1F NOT SWAP1 SWAP3 ADD SWAP2 PUSH1 0x20 SWAP2 DUP3 ADD SWAP2 ADD PUSH2 0x8A3 JUMP JUMPDEST PUSH1 0x1 DUP4 PUSH1 0x20 SUB PUSH2 0x100 EXP SUB DUP1 NOT DUP3 MLOAD AND DUP2 DUP5 MLOAD AND OR SWAP1 SWAP3 MSTORE POP POP POP SWAP2 SWAP1 SWAP2 ADD SWAP3 POP PUSH1 0x40 SWAP2 POP POP MLOAD DUP1 SWAP2 SUB SWAP1 KECCAK256 PUSH2 0xD40 JUMP JUMPDEST POP SWAP12 SWAP11 POP POP POP POP POP POP POP POP POP POP POP JUMP JUMPDEST PUSH1 0x0 DUP1 SLOAD PUSH1 0x1 PUSH1 0xA0 PUSH1 0x2 EXP SUB AND ISZERO DUP1 PUSH2 0x92E JUMPI POP PUSH1 0x0 SLOAD PUSH2 0x92C SWAP1 PUSH1 0x1 PUSH1 0xA0 PUSH1 0x2 EXP SUB AND PUSH2 0xD55 JUMP JUMPDEST ISZERO JUMPDEST ISZERO PUSH2 0x93F JUMPI PUSH2 0x93D PUSH1 0x0 PUSH2 0xD59 JUMP JUMPDEST POP JUMPDEST PUSH1 0x0 SLOAD PUSH1 0x1 PUSH1 0xA0 PUSH1 0x2 EXP SUB AND PUSH4 0x38CC4831 PUSH1 0x40 MLOAD DUP2 PUSH4 0xFFFFFFFF AND PUSH1 0xE0 PUSH1 0x2 EXP MUL DUP2 MSTORE PUSH1 0x4 ADD PUSH1 0x20 PUSH1 0x40 MLOAD DUP1 DUP4 SUB DUP2 PUSH1 0x0 DUP8 DUP1 EXTCODESIZE ISZERO DUP1 ISZERO PUSH2 0x97F JUMPI PUSH1 0x0 DUP1 REVERT JUMPDEST POP GAS CALL ISZERO DUP1 ISZERO PUSH2 0x993 JUMPI RETURNDATASIZE PUSH1 0x0 DUP1 RETURNDATACOPY RETURNDATASIZE PUSH1 0x0 REVERT JUMPDEST POP POP POP POP PUSH1 0x40 MLOAD RETURNDATASIZE PUSH1 0x20 DUP2 LT ISZERO PUSH2 0x9A9 JUMPI PUSH1 0x0 DUP1 REVERT JUMPDEST DUP2 ADD SWAP1 DUP1 DUP1 MLOAD PUSH1 0x1 SLOAD PUSH1 0x1 PUSH1 0xA0 PUSH1 0x2 EXP SUB SWAP1 DUP2 AND SWAP2 AND EQ SWAP3 POP PUSH2 0xA5D SWAP2 POP POP JUMPI PUSH1 0x0 SLOAD PUSH1 0x1 PUSH1 0xA0 PUSH1 0x2 EXP SUB AND PUSH4 0x38CC4831 PUSH1 0x40 MLOAD DUP2 PUSH4 0xFFFFFFFF AND PUSH1 0xE0 PUSH1 0x2 EXP MUL DUP2 MSTORE PUSH1 0x4 ADD PUSH1 0x20 PUSH1 0x40 MLOAD DUP1 DUP4 SUB DUP2 PUSH1 0x0 DUP8 DUP1 EXTCODESIZE ISZERO DUP1 ISZERO PUSH2 0xA09 JUMPI PUSH1 0x0 DUP1 REVERT JUMPDEST POP GAS CALL ISZERO DUP1 ISZERO PUSH2 0xA1D JUMPI RETURNDATASIZE PUSH1 0x0 DUP1 RETURNDATACOPY RETURNDATASIZE PUSH1 0x0 REVERT JUMPDEST POP POP POP POP PUSH1 0x40 MLOAD RETURNDATASIZE PUSH1 0x20 DUP2 LT ISZERO PUSH2 0xA33 JUMPI PUSH1 0x0 DUP1 REVERT JUMPDEST DUP2 ADD SWAP1 DUP1 DUP1 MLOAD PUSH1 0x1 DUP1 SLOAD PUSH1 0x1 PUSH1 0xA0 PUSH1 0x2 EXP SUB NOT AND PUSH1 0x1 PUSH1 0xA0 PUSH1 0x2 EXP SUB SWAP3 SWAP1 SWAP3 AND SWAP2 SWAP1 SWAP2 OR SWAP1 SSTORE POP POP POP JUMPDEST PUSH1 0x1 SLOAD PUSH1 0x1 PUSH1 0xA0 PUSH1 0x2 EXP SUB AND PUSH4 0xABAA5F3E PUSH1 0x40 MLOAD DUP2 PUSH4 0xFFFFFFFF AND PUSH1 0xE0 PUSH1 0x2 EXP MUL DUP2 MSTORE PUSH1 0x4 ADD PUSH1 0x20 PUSH1 0x40 MLOAD DUP1 DUP4 SUB DUP2 PUSH1 0x0 DUP8 DUP1 EXTCODESIZE ISZERO DUP1 ISZERO PUSH2 0xA9D JUMPI PUSH1 0x0 DUP1 REVERT JUMPDEST POP GAS CALL ISZERO DUP1 ISZERO PUSH2 0xAB1 JUMPI RETURNDATASIZE PUSH1 0x0 DUP1 RETURNDATACOPY RETURNDATASIZE PUSH1 0x0 REVERT JUMPDEST POP POP POP POP PUSH1 0x40 MLOAD RETURNDATASIZE PUSH1 0x20 DUP2 LT ISZERO PUSH2 0xAC7 JUMPI PUSH1 0x0 DUP1 REVERT JUMPDEST DUP2 ADD SWAP1 DUP1 DUP1 MLOAD SWAP4 POP POP POP POP JUMPDEST SWAP1 JUMP JUMPDEST PUSH1 0x60 DUP4 DUP3 ADD PUSH1 0x0 DUP1 DUP3 DUP7 MLOAD LT ISZERO PUSH2 0xAEC JUMPI PUSH1 0x0 DUP1 REVERT JUMPDEST POP POP PUSH1 0x20 DUP1 DUP8 ADD SWAP1 DUP5 ADD JUMPDEST DUP7 DUP9 PUSH1 0x20 ADD ADD DUP3 LT ISZERO PUSH2 0xB18 JUMPI DUP2 DUP10 ADD MLOAD DUP7 DUP3 ADD MSTORE PUSH1 0x20 SWAP2 DUP3 ADD SWAP2 ADD PUSH2 0xAF7 JUMP JUMPDEST POP SWAP4 SWAP8 SWAP7 POP POP POP POP POP POP POP JUMP JUMPDEST PUSH1 0x0 DUP1 SLOAD PUSH1 0x60 SWAP1 PUSH1 0x1 PUSH1 0xA0 PUSH1 0x2 EXP SUB AND ISZERO DUP1 PUSH2 0xB53 JUMPI POP PUSH1 0x0 SLOAD PUSH2 0xB51 SWAP1 PUSH1 0x1 PUSH1 0xA0 PUSH1 0x2 EXP SUB AND PUSH2 0xD55 JUMP JUMPDEST ISZERO JUMPDEST ISZERO PUSH2 0xB64 JUMPI PUSH2 0xB62 PUSH1 0x0 PUSH2 0xD59 JUMP JUMPDEST POP JUMPDEST PUSH1 0x0 SLOAD PUSH1 0x1 PUSH1 0xA0 PUSH1 0x2 EXP SUB AND PUSH4 0x38CC4831 PUSH1 0x40 MLOAD DUP2 PUSH4 0xFFFFFFFF AND PUSH1 0xE0 PUSH1 0x2 EXP MUL DUP2 MSTORE PUSH1 0x4 ADD PUSH1 0x20 PUSH1 0x40 MLOAD DUP1 DUP4 SUB DUP2 PUSH1 0x0 DUP8 DUP1 EXTCODESIZE ISZERO DUP1 ISZERO PUSH2 0xBA4 JUMPI PUSH1 0x0 DUP1 REVERT JUMPDEST POP GAS CALL ISZERO DUP1 ISZERO PUSH2 0xBB8 JUMPI RETURNDATASIZE PUSH1 0x0 DUP1 RETURNDATACOPY RETURNDATASIZE PUSH1 0x0 REVERT JUMPDEST POP POP POP POP PUSH1 0x40 MLOAD RETURNDATASIZE PUSH1 0x20 DUP2 LT ISZERO PUSH2 0xBCE JUMPI PUSH1 0x0 DUP1 REVERT JUMPDEST DUP2 ADD SWAP1 DUP1 DUP1 MLOAD PUSH1 0x1 SLOAD PUSH1 0x1 PUSH1 0xA0 PUSH1 0x2 EXP SUB SWAP1 DUP2 AND SWAP2 AND EQ SWAP3 POP PUSH2 0xC82 SWAP2 POP POP JUMPI PUSH1 0x0 SLOAD PUSH1 0x1 PUSH1 0xA0 PUSH1 0x2 EXP SUB AND PUSH4 0x38CC4831 PUSH1 0x40 MLOAD DUP2 PUSH4 0xFFFFFFFF AND PUSH1 0xE0 PUSH1 0x2 EXP MUL DUP2 MSTORE PUSH1 0x4 ADD PUSH1 0x20 PUSH1 0x40 MLOAD DUP1 DUP4 SUB DUP2 PUSH1 0x0 DUP8 DUP1 EXTCODESIZE ISZERO DUP1 ISZERO PUSH2 0xC2E JUMPI PUSH1 0x0 DUP1 REVERT JUMPDEST POP GAS CALL ISZERO DUP1 ISZERO PUSH2 0xC42 JUMPI RETURNDATASIZE PUSH1 0x0 DUP1 RETURNDATACOPY RETURNDATASIZE PUSH1 0x0 REVERT JUMPDEST POP POP POP POP PUSH1 0x40 MLOAD RETURNDATASIZE PUSH1 0x20 DUP2 LT ISZERO PUSH2 0xC58 JUMPI PUSH1 0x0 DUP1 REVERT JUMPDEST DUP2 ADD SWAP1 DUP1 DUP1 MLOAD PUSH1 0x1 DUP1 SLOAD PUSH1 0x1 PUSH1 0xA0 PUSH1 0x2 EXP SUB NOT AND PUSH1 0x1 PUSH1 0xA0 PUSH1 0x2 EXP SUB SWAP3 SWAP1 SWAP3 AND SWAP2 SWAP1 SWAP2 OR SWAP1 SSTORE POP POP POP JUMPDEST PUSH1 0x4 PUSH1 0x40 MLOAD SWAP1 DUP1 DUP3 MSTORE DUP1 PUSH1 0x20 MUL PUSH1 0x20 ADD DUP3 ADD PUSH1 0x40 MSTORE DUP1 ISZERO PUSH2 0xCB7 JUMPI DUP2 PUSH1 0x20 ADD JUMPDEST PUSH1 0x60 DUP2 MSTORE PUSH1 0x20 ADD SWAP1 PUSH1 0x1 SWAP1 SUB SWAP1 DUP2 PUSH2 0xCA2 JUMPI SWAP1 POP JUMPDEST POP SWAP1 POP DUP4 MLOAD DUP2 PUSH1 0x0 DUP2 MLOAD DUP2 LT PUSH2 0xCC9 JUMPI INVALID JUMPDEST PUSH1 0x20 SWAP1 DUP2 MUL SWAP1 SWAP2 ADD ADD MSTORE DUP4 PUSH1 0x1 PUSH1 0x20 MUL ADD MLOAD DUP2 PUSH1 0x1 DUP2 MLOAD DUP2 LT PUSH2 0xCE8 JUMPI INVALID JUMPDEST PUSH1 0x20 SWAP1 DUP2 MUL SWAP2 SWAP1 SWAP2 ADD ADD MSTORE PUSH1 0x40 DUP5 ADD MLOAD DUP2 PUSH1 0x2 DUP2 MLOAD DUP2 LT PUSH2 0xD05 JUMPI INVALID JUMPDEST PUSH1 0x20 SWAP1 DUP2 MUL SWAP2 SWAP1 SWAP2 ADD ADD MSTORE PUSH1 0x60 DUP5 ADD MLOAD DUP2 PUSH1 0x3 DUP2 MLOAD DUP2 LT PUSH2 0xD22 JUMPI INVALID JUMPDEST PUSH1 0x20 SWAP1 DUP2 MUL SWAP1 SWAP2 ADD ADD MSTORE PUSH2 0xD37 DUP6 DUP3 DUP6 PUSH2 0xD69 JUMP JUMPDEST SWAP6 SWAP5 POP POP POP POP POP JUMP JUMPDEST PUSH1 0x0 DUP3 DUP2 MSTORE PUSH1 0x3 PUSH1 0x20 MSTORE DUP2 SWAP1 PUSH1 0x40 SWAP1 KECCAK256 SSTORE POP POP JUMP JUMPDEST EXTCODESIZE SWAP1 JUMP JUMPDEST PUSH1 0x0 PUSH2 0xD63 PUSH2 0x1143 JUMP JUMPDEST SWAP3 SWAP2 POP POP JUMP JUMPDEST PUSH1 0x0 DUP1 SLOAD DUP2 SWAP1 PUSH1 0x60 SWAP1 PUSH1 0x1 PUSH1 0xA0 PUSH1 0x2 EXP SUB AND ISZERO DUP1 PUSH2 0xD99 JUMPI POP PUSH1 0x0 SLOAD PUSH2 0xD97 SWAP1 PUSH1 0x1 PUSH1 0xA0 PUSH1 0x2 EXP SUB AND PUSH2 0xD55 JUMP JUMPDEST ISZERO JUMPDEST ISZERO PUSH2 0xDAA JUMPI PUSH2 0xDA8 PUSH1 0x0 PUSH2 0xD59 JUMP JUMPDEST POP JUMPDEST PUSH1 0x0 SLOAD PUSH1 0x1 PUSH1 0xA0 PUSH1 0x2 EXP SUB AND PUSH4 0x38CC4831 PUSH1 0x40 MLOAD DUP2 PUSH4 0xFFFFFFFF AND PUSH1 0xE0 PUSH1 0x2 EXP MUL DUP2 MSTORE PUSH1 0x4 ADD PUSH1 0x20 PUSH1 0x40 MLOAD DUP1 DUP4 SUB DUP2 PUSH1 0x0 DUP8 DUP1 EXTCODESIZE ISZERO DUP1 ISZERO PUSH2 0xDEA JUMPI PUSH1 0x0 DUP1 REVERT JUMPDEST POP GAS CALL ISZERO DUP1 ISZERO PUSH2 0xDFE JUMPI RETURNDATASIZE PUSH1 0x0 DUP1 RETURNDATACOPY RETURNDATASIZE PUSH1 0x0 REVERT JUMPDEST POP POP POP POP PUSH1 0x40 MLOAD RETURNDATASIZE PUSH1 0x20 DUP2 LT ISZERO PUSH2 0xE14 JUMPI PUSH1 0x0 DUP1 REVERT JUMPDEST DUP2 ADD SWAP1 DUP1 DUP1 MLOAD PUSH1 0x1 SLOAD PUSH1 0x1 PUSH1 0xA0 PUSH1 0x2 EXP SUB SWAP1 DUP2 AND SWAP2 AND EQ SWAP3 POP PUSH2 0xEC8 SWAP2 POP POP JUMPI PUSH1 0x0 SLOAD PUSH1 0x1 PUSH1 0xA0 PUSH1 0x2 EXP SUB AND PUSH4 0x38CC4831 PUSH1 0x40 MLOAD DUP2 PUSH4 0xFFFFFFFF AND PUSH1 0xE0 PUSH1 0x2 EXP MUL DUP2 MSTORE PUSH1 0x4 ADD PUSH1 0x20 PUSH1 0x40 MLOAD DUP1 DUP4 SUB DUP2 PUSH1 0x0 DUP8 DUP1 EXTCODESIZE ISZERO DUP1 ISZERO PUSH2 0xE74 JUMPI PUSH1 0x0 DUP1 REVERT JUMPDEST POP GAS CALL ISZERO DUP1 ISZERO PUSH2 0xE88 JUMPI RETURNDATASIZE PUSH1 0x0 DUP1 RETURNDATACOPY RETURNDATASIZE PUSH1 0x0 REVERT JUMPDEST POP POP POP POP PUSH1 0x40 MLOAD RETURNDATASIZE PUSH1 0x20 DUP2 LT ISZERO PUSH2 0xE9E JUMPI PUSH1 0x0 DUP1 REVERT JUMPDEST DUP2 ADD SWAP1 DUP1 DUP1 MLOAD PUSH1 0x1 DUP1 SLOAD PUSH1 0x1 PUSH1 0xA0 PUSH1 0x2 EXP SUB NOT AND PUSH1 0x1 PUSH1 0xA0 PUSH1 0x2 EXP SUB SWAP3 SWAP1 SWAP3 AND SWAP2 SWAP1 SWAP2 OR SWAP1 SSTORE POP POP POP JUMPDEST PUSH1 0x1 SLOAD PUSH1 0x1 PUSH1 0xA0 PUSH1 0x2 EXP SUB AND PUSH4 0x2EF3ACCC DUP8 DUP7 PUSH1 0x40 MLOAD DUP4 PUSH4 0xFFFFFFFF AND PUSH1 0xE0 PUSH1 0x2 EXP MUL DUP2 MSTORE PUSH1 0x4 ADD DUP1 DUP1 PUSH1 0x20 ADD DUP4 DUP2 MSTORE PUSH1 0x20 ADD DUP3 DUP2 SUB DUP3 MSTORE DUP5 DUP2 DUP2 MLOAD DUP2 MSTORE PUSH1 0x20 ADD SWAP2 POP DUP1 MLOAD SWAP1 PUSH1 0x20 ADD SWAP1 DUP1 DUP4 DUP4 PUSH1 0x0 JUMPDEST DUP4 DUP2 LT ISZERO PUSH2 0xF30 JUMPI DUP1 DUP3 ADD MLOAD DUP4 DUP3 ADD MSTORE PUSH1 0x20 ADD PUSH2 0xF18 JUMP JUMPDEST POP POP POP POP SWAP1 POP SWAP1 DUP2 ADD SWAP1 PUSH1 0x1F AND DUP1 ISZERO PUSH2 0xF5D JUMPI DUP1 DUP3 SUB DUP1 MLOAD PUSH1 0x1 DUP4 PUSH1 0x20 SUB PUSH2 0x100 EXP SUB NOT AND DUP2 MSTORE PUSH1 0x20 ADD SWAP2 POP JUMPDEST POP SWAP4 POP POP POP POP PUSH1 0x20 PUSH1 0x40 MLOAD DUP1 DUP4 SUB DUP2 PUSH1 0x0 DUP8 DUP1 EXTCODESIZE ISZERO DUP1 ISZERO PUSH2 0xF7D JUMPI PUSH1 0x0 DUP1 REVERT JUMPDEST POP GAS CALL ISZERO DUP1 ISZERO PUSH2 0xF91 JUMPI RETURNDATASIZE PUSH1 0x0 DUP1 RETURNDATACOPY RETURNDATASIZE PUSH1 0x0 REVERT JUMPDEST POP POP POP POP PUSH1 0x40 MLOAD RETURNDATASIZE PUSH1 0x20 DUP2 LT ISZERO PUSH2 0xFA7 JUMPI PUSH1 0x0 DUP1 REVERT JUMPDEST DUP2 ADD SWAP1 DUP1 DUP1 MLOAD SWAP5 POP POP POP POP PUSH8 0xDE0B6B3A7640000 GASPRICE DUP6 MUL ADD DUP3 GT ISZERO PUSH2 0xFCF JUMPI PUSH1 0x0 SWAP3 POP PUSH2 0x113A JUMP JUMPDEST PUSH2 0xFD8 DUP6 PUSH2 0x14EE JUMP JUMPDEST PUSH1 0x1 SLOAD SWAP1 SWAP2 POP PUSH1 0x1 PUSH1 0xA0 PUSH1 0x2 EXP SUB AND PUSH4 0xC55C1CB6 DUP4 PUSH1 0x0 DUP10 DUP6 DUP10 PUSH1 0x40 MLOAD DUP7 PUSH4 0xFFFFFFFF AND PUSH1 0xE0 PUSH1 0x2 EXP MUL DUP2 MSTORE PUSH1 0x4 ADD DUP1 DUP6 DUP2 MSTORE PUSH1 0x20 ADD DUP1 PUSH1 0x20 ADD DUP1 PUSH1 0x20 ADD DUP5 DUP2 MSTORE PUSH1 0x20 ADD DUP4 DUP2 SUB DUP4 MSTORE DUP7 DUP2 DUP2 MLOAD DUP2 MSTORE PUSH1 0x20 ADD SWAP2 POP DUP1 MLOAD SWAP1 PUSH1 0x20 ADD SWAP1 DUP1 DUP4 DUP4 PUSH1 0x0 JUMPDEST DUP4 DUP2 LT ISZERO PUSH2 0x1051 JUMPI DUP1 DUP3 ADD MLOAD DUP4 DUP3 ADD MSTORE PUSH1 0x20 ADD PUSH2 0x1039 JUMP JUMPDEST POP POP POP POP SWAP1 POP SWAP1 DUP2 ADD SWAP1 PUSH1 0x1F AND DUP1 ISZERO PUSH2 0x107E JUMPI DUP1 DUP3 SUB DUP1 MLOAD PUSH1 0x1 DUP4 PUSH1 0x20 SUB PUSH2 0x100 EXP SUB NOT AND DUP2 MSTORE PUSH1 0x20 ADD SWAP2 POP JUMPDEST POP DUP4 DUP2 SUB DUP3 MSTORE DUP6 DUP2 DUP2 MLOAD DUP2 MSTORE PUSH1 0x20 ADD SWAP2 POP DUP1 MLOAD SWAP1 PUSH1 0x20 ADD SWAP1 DUP1 DUP4 DUP4 PUSH1 0x0 JUMPDEST DUP4 DUP2 LT ISZERO PUSH2 0x10B4 JUMPI DUP1 DUP3 ADD MLOAD DUP4 DUP3 ADD MSTORE PUSH1 0x20 ADD PUSH2 0x109C JUMP JUMPDEST POP POP POP POP SWAP1 POP SWAP1 DUP2 ADD SWAP1 PUSH1 0x1F AND DUP1 ISZERO PUSH2 0x10E1 JUMPI DUP1 DUP3 SUB DUP1 MLOAD PUSH1 0x1 DUP4 PUSH1 0x20 SUB PUSH2 0x100 EXP SUB NOT AND DUP2 MSTORE PUSH1 0x20 ADD SWAP2 POP JUMPDEST POP SWAP7 POP POP POP POP POP POP POP PUSH1 0x20 PUSH1 0x40 MLOAD DUP1 DUP4 SUB DUP2 DUP6 DUP9 DUP1 EXTCODESIZE ISZERO DUP1 ISZERO PUSH2 0x1103 JUMPI PUSH1 0x0 DUP1 REVERT JUMPDEST POP GAS CALL ISZERO DUP1 ISZERO PUSH2 0x1117 JUMPI RETURNDATASIZE PUSH1 0x0 DUP1 RETURNDATACOPY RETURNDATASIZE PUSH1 0x0 REVERT JUMPDEST POP POP POP POP POP PUSH1 0x40 MLOAD RETURNDATASIZE PUSH1 0x20 DUP2 LT ISZERO PUSH2 0x112E JUMPI PUSH1 0x0 DUP1 REVERT JUMPDEST DUP2 ADD SWAP1 DUP1 DUP1 MLOAD SWAP6 POP POP POP POP JUMPDEST POP POP SWAP4 SWAP3 POP POP POP JUMP JUMPDEST PUSH1 0x0 DUP1 PUSH2 0x1163 PUSH20 0x1D3B2638A7CC9F2CB3D298A3DA7A90B67E5506ED PUSH2 0xD55 JUMP JUMPDEST GT ISZERO PUSH2 0x11D3 JUMPI PUSH1 0x0 DUP1 SLOAD PUSH1 0x1 PUSH1 0xA0 PUSH1 0x2 EXP SUB NOT AND PUSH20 0x1D3B2638A7CC9F2CB3D298A3DA7A90B67E5506ED OR SWAP1 SSTORE PUSH2 0x11CB PUSH1 0x40 DUP1 MLOAD SWAP1 DUP2 ADD PUSH1 0x40 MSTORE PUSH1 0xB DUP2 MSTORE PUSH32 0x6574685F6D61696E6E6574000000000000000000000000000000000000000000 PUSH1 0x20 DUP3 ADD MSTORE PUSH2 0x1565 JUMP JUMPDEST POP PUSH1 0x1 PUSH2 0xAD3 JUMP JUMPDEST PUSH1 0x0 PUSH2 0x11F2 PUSH20 0xC03A2615D5EFAF5F49F60B7BB6583EAEC212FDF1 PUSH2 0xD55 JUMP JUMPDEST GT ISZERO PUSH2 0x125A JUMPI PUSH1 0x0 DUP1 SLOAD PUSH1 0x1 PUSH1 0xA0 PUSH1 0x2 EXP SUB NOT AND PUSH20 0xC03A2615D5EFAF5F49F60B7BB6583EAEC212FDF1 OR SWAP1 SSTORE PUSH2 0x11CB PUSH1 0x40 DUP1 MLOAD SWAP1 DUP2 ADD PUSH1 0x40 MSTORE PUSH1 0xC DUP2 MSTORE PUSH32 0x6574685F726F707374656E330000000000000000000000000000000000000000 PUSH1 0x20 DUP3 ADD MSTORE PUSH2 0x1565 JUMP JUMPDEST PUSH1 0x0 PUSH2 0x1279 PUSH20 0xB7A07BCF2BA2F2703B24C0691B5278999C59AC7E PUSH2 0xD55 JUMP JUMPDEST GT ISZERO PUSH2 0x12E1 JUMPI PUSH1 0x0 DUP1 SLOAD PUSH1 0x1 PUSH1 0xA0 PUSH1 0x2 EXP SUB NOT AND PUSH20 0xB7A07BCF2BA2F2703B24C0691B5278999C59AC7E OR SWAP1 SSTORE PUSH2 0x11CB PUSH1 0x40 DUP1 MLOAD SWAP1 DUP2 ADD PUSH1 0x40 MSTORE PUSH1 0x9 DUP2 MSTORE PUSH32 0x6574685F6B6F76616E0000000000000000000000000000000000000000000000 PUSH1 0x20 DUP3 ADD MSTORE PUSH2 0x1565 JUMP JUMPDEST PUSH1 0x0 PUSH2 0x1300 PUSH20 0x146500CFD35B22E4A392FE0ADC06DE1A1368ED48 PUSH2 0xD55 JUMP JUMPDEST GT ISZERO PUSH2 0x1368 JUMPI PUSH1 0x0 DUP1 SLOAD PUSH1 0x1 PUSH1 0xA0 PUSH1 0x2 EXP SUB NOT AND PUSH20 0x146500CFD35B22E4A392FE0ADC06DE1A1368ED48 OR SWAP1 SSTORE PUSH2 0x11CB PUSH1 0x40 DUP1 MLOAD SWAP1 DUP2 ADD PUSH1 0x40 MSTORE PUSH1 0xB DUP2 MSTORE PUSH32 0x6574685F72696E6B656279000000000000000000000000000000000000000000 PUSH1 0x20 DUP3 ADD MSTORE PUSH2 0x1565 JUMP JUMPDEST PUSH1 0x0 PUSH2 0x1387 PUSH20 0xA2998EFD205FB9D4B4963AFB70778D6354AD3A41 PUSH2 0xD55 JUMP JUMPDEST GT ISZERO PUSH2 0x13EF JUMPI PUSH1 0x0 DUP1 SLOAD PUSH1 0x1 PUSH1 0xA0 PUSH1 0x2 EXP SUB NOT AND PUSH20 0xA2998EFD205FB9D4B4963AFB70778D6354AD3A41 OR SWAP1 SSTORE PUSH2 0x11CB PUSH1 0x40 DUP1 MLOAD SWAP1 DUP2 ADD PUSH1 0x40 MSTORE PUSH1 0xA DUP2 MSTORE PUSH32 0x6574685F676F65726C6900000000000000000000000000000000000000000000 PUSH1 0x20 DUP3 ADD MSTORE PUSH2 0x1565 JUMP JUMPDEST PUSH1 0x0 PUSH2 0x140E PUSH20 0x6F485C8BF6FC43EA212E93BBF8CE046C7F1CB475 PUSH2 0xD55 JUMP JUMPDEST GT ISZERO PUSH2 0x1442 JUMPI POP PUSH1 0x0 DUP1 SLOAD PUSH1 0x1 PUSH1 0xA0 PUSH1 0x2 EXP SUB NOT AND PUSH20 0x6F485C8BF6FC43EA212E93BBF8CE046C7F1CB475 OR SWAP1 SSTORE PUSH1 0x1 PUSH2 0xAD3 JUMP JUMPDEST PUSH1 0x0 PUSH2 0x1461 PUSH20 0x20E12A1F859B3FEAE5FB2A0A32C18F5A65555BBF PUSH2 0xD55 JUMP JUMPDEST GT ISZERO PUSH2 0x1495 JUMPI POP PUSH1 0x0 DUP1 SLOAD PUSH1 0x1 PUSH1 0xA0 PUSH1 0x2 EXP SUB NOT AND PUSH20 0x20E12A1F859B3FEAE5FB2A0A32C18F5A65555BBF OR SWAP1 SSTORE PUSH1 0x1 PUSH2 0xAD3 JUMP JUMPDEST PUSH1 0x0 PUSH2 0x14B4 PUSH20 0x51EFAF4C8B3C9AFBD5AB9F4BBC82784AB6EF8FAA PUSH2 0xD55 JUMP JUMPDEST GT ISZERO PUSH2 0x14E8 JUMPI POP PUSH1 0x0 DUP1 SLOAD PUSH1 0x1 PUSH1 0xA0 PUSH1 0x2 EXP SUB NOT AND PUSH20 0x51EFAF4C8B3C9AFBD5AB9F4BBC82784AB6EF8FAA OR SWAP1 SSTORE PUSH1 0x1 PUSH2 0xAD3 JUMP JUMPDEST POP PUSH1 0x0 SWAP1 JUMP JUMPDEST PUSH1 0x60 PUSH2 0x14F8 PUSH2 0x1886 JUMP JUMPDEST PUSH1 0x0 PUSH2 0x1502 PUSH2 0x157C JUMP JUMPDEST PUSH2 0x150E DUP3 PUSH2 0x400 PUSH2 0x1588 JUMP JUMPDEST PUSH2 0x1517 DUP3 PUSH2 0x15B6 JUMP JUMPDEST POP PUSH1 0x0 JUMPDEST DUP4 MLOAD DUP2 LT ISZERO PUSH2 0x1552 JUMPI PUSH2 0x154A DUP5 DUP3 DUP2 MLOAD DUP2 LT PUSH2 0x1533 JUMPI INVALID JUMPDEST SWAP1 PUSH1 0x20 ADD SWAP1 PUSH1 0x20 MUL ADD MLOAD DUP4 SWAP1 PUSH4 0xFFFFFFFF PUSH2 0x15C1 AND JUMP JUMPDEST PUSH1 0x1 ADD PUSH2 0x151B JUMP JUMPDEST PUSH2 0x155B DUP3 PUSH2 0x15DE JUMP JUMPDEST DUP2 MLOAD SWAP5 SWAP4 POP POP POP POP JUMP JUMPDEST PUSH1 0x2 DUP2 DUP1 MLOAD PUSH2 0x1578 SWAP3 SWAP2 PUSH1 0x20 ADD SWAP1 PUSH2 0x189E JUMP JUMPDEST POP POP JUMP JUMPDEST PUSH1 0x40 MLOAD DUP1 MSIZE SUB CODESIZE DUP3 CODECOPY POP JUMP JUMPDEST DUP1 PUSH1 0x20 DUP2 MOD ISZERO PUSH2 0x159B JUMPI PUSH1 0x20 DUP2 MOD PUSH1 0x20 SUB ADD JUMPDEST PUSH1 0x20 DUP4 ADD DUP2 SWAP1 MSTORE PUSH1 0x40 MLOAD SWAP3 DUP4 SWAP1 MSTORE PUSH1 0x0 DUP4 MSTORE SWAP1 SWAP2 ADD PUSH1 0x40 MSTORE POP JUMP JUMPDEST PUSH2 0x368 DUP2 PUSH1 0x4 PUSH2 0x15E5 JUMP JUMPDEST PUSH2 0x15CE DUP3 PUSH1 0x2 DUP4 MLOAD PUSH2 0x15FE JUMP JUMPDEST PUSH2 0x36B DUP3 DUP3 PUSH4 0xFFFFFFFF PUSH2 0x1702 AND JUMP JUMPDEST PUSH2 0x368 DUP2 PUSH1 0x7 JUMPDEST PUSH2 0x1578 DUP3 PUSH1 0x1F PUSH1 0x20 PUSH1 0xFF DUP6 AND MUL OR PUSH4 0xFFFFFFFF PUSH2 0x179F AND JUMP JUMPDEST PUSH1 0x17 DUP2 GT PUSH2 0x161F JUMPI PUSH2 0x161A DUP4 PUSH1 0xFF DUP5 DUP2 AND PUSH1 0x20 MUL AND DUP4 OR PUSH2 0x179F JUMP JUMPDEST PUSH2 0x36B JUMP JUMPDEST PUSH1 0xFF DUP2 GT PUSH2 0x1658 JUMPI PUSH2 0x1640 DUP4 PUSH1 0x18 PUSH1 0x20 PUSH1 0xFF DUP7 AND MUL OR PUSH4 0xFFFFFFFF PUSH2 0x179F AND JUMP JUMPDEST PUSH2 0x1652 DUP4 DUP3 PUSH1 0x1 PUSH4 0xFFFFFFFF PUSH2 0x17D8 AND JUMP JUMPDEST POP PUSH2 0x36B JUMP JUMPDEST PUSH2 0xFFFF DUP2 GT PUSH2 0x168C JUMPI PUSH2 0x167A DUP4 PUSH1 0x19 PUSH1 0x20 PUSH1 0xFF DUP7 AND MUL OR PUSH4 0xFFFFFFFF PUSH2 0x179F AND JUMP JUMPDEST PUSH2 0x1652 DUP4 DUP3 PUSH1 0x2 PUSH4 0xFFFFFFFF PUSH2 0x17D8 AND JUMP JUMPDEST PUSH4 0xFFFFFFFF DUP2 GT PUSH2 0x16C2 JUMPI PUSH2 0x16B0 DUP4 PUSH1 0x1A PUSH1 0x20 PUSH1 0xFF DUP7 AND MUL OR PUSH4 0xFFFFFFFF PUSH2 0x179F AND JUMP JUMPDEST PUSH2 0x1652 DUP4 DUP3 PUSH1 0x4 PUSH4 0xFFFFFFFF PUSH2 0x17D8 AND JUMP JUMPDEST PUSH8 0xFFFFFFFFFFFFFFFF DUP2 GT PUSH2 0x36B JUMPI PUSH2 0x16EA DUP4 PUSH1 0x1B PUSH1 0x20 PUSH1 0xFF DUP7 AND MUL OR PUSH4 0xFFFFFFFF PUSH2 0x179F AND JUMP JUMPDEST PUSH2 0x16FC DUP4 DUP3 PUSH1 0x8 PUSH4 0xFFFFFFFF PUSH2 0x17D8 AND JUMP JUMPDEST POP POP POP POP JUMP JUMPDEST PUSH2 0x170A PUSH2 0x1886 JUMP JUMPDEST PUSH1 0x0 DUP1 PUSH1 0x0 DUP1 DUP7 PUSH1 0x20 ADD MLOAD DUP8 MLOAD MLOAD DUP8 MLOAD ADD GT ISZERO PUSH2 0x173C JUMPI PUSH2 0x173C DUP8 PUSH2 0x1734 DUP10 PUSH1 0x20 ADD MLOAD DUP10 MLOAD PUSH2 0x182E JUMP JUMPDEST PUSH1 0x2 MUL PUSH2 0x1845 JUMP JUMPDEST DUP6 MLOAD SWAP2 POP DUP7 MLOAD DUP1 MLOAD PUSH1 0x20 DUP2 DUP4 ADD ADD SWAP6 POP DUP8 MLOAD ADD SWAP1 MSTORE PUSH1 0x20 DUP7 ADD SWAP3 POP JUMPDEST PUSH1 0x20 DUP3 LT PUSH2 0x177B JUMPI DUP3 MLOAD DUP5 MSTORE PUSH1 0x20 DUP5 ADD SWAP4 POP PUSH1 0x20 DUP4 ADD SWAP3 POP PUSH1 0x20 DUP3 SUB SWAP2 POP PUSH2 0x1758 JUMP JUMPDEST PUSH1 0x1 DUP3 PUSH1 0x20 SUB PUSH2 0x100 EXP SUB SWAP1 POP DUP1 NOT DUP4 MLOAD AND DUP2 DUP6 MLOAD AND OR SWAP1 SWAP4 MSTORE POP SWAP4 SWAP5 SWAP4 POP POP POP POP JUMP JUMPDEST DUP2 PUSH1 0x20 ADD MLOAD DUP3 MLOAD MLOAD PUSH1 0x1 ADD GT ISZERO PUSH2 0x17C1 JUMPI PUSH2 0x17C1 DUP3 DUP4 PUSH1 0x20 ADD MLOAD PUSH1 0x2 MUL PUSH2 0x1845 JUMP JUMPDEST DUP2 MLOAD DUP1 MLOAD PUSH1 0x20 DUP2 DUP4 ADD ADD DUP4 DUP2 MSTORE8 POP PUSH1 0x1 ADD SWAP1 MSTORE POP POP JUMP JUMPDEST PUSH2 0x17E0 PUSH2 0x1886 JUMP JUMPDEST PUSH1 0x0 DUP5 PUSH1 0x20 ADD MLOAD DUP6 MLOAD MLOAD DUP5 ADD GT ISZERO PUSH2 0x1804 JUMPI PUSH2 0x1804 DUP6 PUSH2 0x1734 DUP8 PUSH1 0x20 ADD MLOAD DUP7 PUSH2 0x182E JUMP JUMPDEST PUSH1 0x1 DUP4 PUSH2 0x100 EXP SUB SWAP1 POP DUP5 MLOAD DUP1 MLOAD DUP5 DUP2 DUP4 ADD ADD DUP7 DUP5 NOT DUP3 MLOAD AND OR SWAP1 MSTORE SWAP1 SWAP4 ADD SWAP1 SWAP3 MSTORE POP SWAP2 SWAP3 SWAP2 POP POP JUMP JUMPDEST PUSH1 0x0 DUP2 DUP4 GT ISZERO PUSH2 0x183F JUMPI POP DUP2 PUSH2 0xD63 JUMP JUMPDEST POP SWAP2 SWAP1 POP JUMP JUMPDEST PUSH1 0x60 DUP3 MLOAD SWAP1 POP PUSH2 0x1855 DUP4 DUP4 PUSH2 0x1588 JUMP JUMPDEST PUSH2 0x16FC DUP4 DUP3 PUSH2 0x1702 JUMP JUMPDEST PUSH1 0x80 PUSH1 0x40 MLOAD SWAP1 DUP2 ADD PUSH1 0x40 MSTORE PUSH1 0x4 DUP2 JUMPDEST PUSH1 0x60 DUP2 MSTORE PUSH1 0x20 ADD SWAP1 PUSH1 0x1 SWAP1 SUB SWAP1 DUP2 PUSH2 0x186E JUMPI SWAP1 POP POP SWAP1 JUMP JUMPDEST PUSH1 0x40 DUP1 MLOAD SWAP1 DUP2 ADD PUSH1 0x40 MSTORE PUSH1 0x60 DUP2 MSTORE PUSH1 0x0 PUSH1 0x20 DUP3 ADD MSTORE SWAP1 JUMP JUMPDEST DUP3 DUP1 SLOAD PUSH1 0x1 DUP2 PUSH1 0x1 AND ISZERO PUSH2 0x100 MUL SUB AND PUSH1 0x2 SWAP1 DIV SWAP1 PUSH1 0x0 MSTORE PUSH1 0x20 PUSH1 0x0 KECCAK256 SWAP1 PUSH1 0x1F ADD PUSH1 0x20 SWAP1 DIV DUP2 ADD SWAP3 DUP3 PUSH1 0x1F LT PUSH2 0x18DF JUMPI DUP1 MLOAD PUSH1 0xFF NOT AND DUP4 DUP1 ADD OR DUP6 SSTORE PUSH2 0x190C JUMP JUMPDEST DUP3 DUP1 ADD PUSH1 0x1 ADD DUP6 SSTORE DUP3 ISZERO PUSH2 0x190C JUMPI SWAP2 DUP3 ADD JUMPDEST DUP3 DUP2 GT ISZERO PUSH2 0x190C JUMPI DUP3 MLOAD DUP3 SSTORE SWAP2 PUSH1 0x20 ADD SWAP2 SWAP1 PUSH1 0x1 ADD SWAP1 PUSH2 0x18F1 JUMP JUMPDEST POP PUSH2 0x1918 SWAP3 SWAP2 POP PUSH2 0x191C JUMP JUMPDEST POP SWAP1 JUMP JUMPDEST PUSH2 0xAD3 SWAP2 SWAP1 JUMPDEST DUP1 DUP3 GT ISZERO PUSH2 0x1918 JUMPI PUSH1 0x0 DUP2 SSTORE PUSH1 0x1 ADD PUSH2 0x1922 JUMP STOP LOG1 PUSH6 0x627A7A723058 KECCAK256 0xc2 0xc6 0xc 0xc0 DIV JUMPI SWAP16 SWAP4 0xb4 SHR 0xd2 CODECOPY PUSH14 0xD9C9781B832B01B7B9D7FACC2A09 DUP11 0xc3 DUP12 0xce 0x47 STOP 0x29 "
		},
		"gasEstimates": {
			"creation": {
				"codeDepositCost": "1299600",
				"executionCost": "21648",
				"totalCost": "1321248"
			},
			"external": {
				"__callback(bytes32,string)": "infinite",
				"__callback(bytes32,string,bytes)": "infinite",
				"acmeAddr()": "600",
				"generate()": "infinite"
			}
		},
		"methodIdentifiers": {
			"__callback(bytes32,string)": "27dc297e",
			"__callback(bytes32,string,bytes)": "38bbfa50",
			"acmeAddr()": "1bee9e44",
			"generate()": "2a1bbc34"
		}
	},
	"abi": [
		{
			"constant": true,
			"inputs": [],
			"name": "acmeAddr",
			"outputs": [
				{
					"name": "",
					"type": "address"
				}
			],
			"payable": false,
			"stateMutability": "view",
			"type": "function"
		},
		{
			"constant": false,
			"inputs": [
				{
					"name": "_queryId",
					"type": "bytes32"
				},
				{
					"name": "_result",
					"type": "string"
				}
			],
			"name": "__callback",
			"outputs": [],
			"payable": false,
			"stateMutability": "nonpayable",
			"type": "function"
		},
		{
			"constant": false,
			"inputs": [],
			"name": "generate",
			"outputs": [],
			"payable": false,
			"stateMutability": "nonpayable",
			"type": "function"
		},
		{
			"constant": false,
			"inputs": [
				{
					"name": "myid",
					"type": "bytes32"
				},
				{
					"name": "result",
					"type": "string"
				},
				{
					"name": "proof",
					"type": "bytes"
				}
			],
			"name": "__callback",
			"outputs": [],
			"payable": false,
			"stateMutability": "nonpayable",
			"type": "function"
		},
		{
			"inputs": [],
			"payable": false,
			"stateMutability": "nonpayable",
			"type": "constructor"
		}
	]
}